:020000040000FA
:0300000002008279
:10004B000200B500000080FB1200ACB900030200F7
:10005B006CE4900001780379018002F0A3D8FCD9FD
:10006B00FA758237758301740012008E75824E7596
:10007B008300740012008E75D0007581BF759F00D0
:10008B00020053C09FF59FE473D09F22D083D08290
:10009B00C09FE493C0E0740193C0E0740293F59F9A
:1000AB00227901221200970F0100C0E0C0D0E8C0F6
:1000BB00E0E9C0E0EAC0E0EBC0E0C082C0839000A2
:1000CB0001E0F8A3E0F9E82401FAE93400FB900021
:1000DB0001EAF0A3EBF0C3E89403E99400400EC2ED
:1000EB00849000017400F0A37400F08002D284D0DD
:1000FB0083D082D0E0FBD0E0FAD0E0F9D0E0F8D0AA
:10010B00D0D0E0327800790080120000000AEAC3F8
:10011B0094C840F6E82401F8E93400F9C3E894DC0C
:10012B00E9940550047A0080E502009443FD1143E5
:10013B00FF01D284D280D2A09000017400F0A3748E
:10014B0000F053C6BFE59DA2E650FA75C6B843BE94
:10015B000475DA0075DB0275E433D2AFD2F0A280FE
:10016B0030F001B39280D2F0A2A030F001B392A094
:10017B00C2B9C2841200AF1200AF1200AF1200AFAF
:10018B001200AF1200AFD2841200AF1200AF1200F8
:10019B00AF1200AF1200AF1200AFD2B91200AF1204
:1001AB0000AF1200AF1200AF1200AF1200AF80AC65
:040000050000008275
:00000001FF
