:020000040000FA
:0300000002008279
:10004B000200B500000080FB1200ACB900030200F7
:10005B006CE4900001780379018002F0A3D8FCD9FD
:10006B00FA758221758301740012008E75824E75AC
:10007B008300740012008E75D0007581BF759F00D0
:10008B00020053C09FF59FE473D09F22D083D08290
:10009B00C09FE493C0E0740193C0E0740293F59F9A
:1000AB0022790122120097F90000C0E0C0D0C08273
:1000BB00C083C0F0900001C3E09404A3E09400500F
:1000CB000E900001E02401F0A3E03400F0801490C6
:1000DB0000017400F0A37400F0D2F0A28030F001A4
:1000EB00B39280D0F0D083D082D0D0D0E0327800E1
:1000FB00790080120000000AEAC394C840F6E82495
:10010B0001F8E93400F9C3E894DCE9940550047A6A
:10011B000080E502009443FD0143FF01D280D2A091
:10012B009000017400F0A37400F053C6BFE59DA2CC
:10013B00E650FA75C6B843BE0475DAD475DB307574
:10014B00E433D2AFD2B9D2F0A2A030F001B392A077
:05015B001200AF80F16D
:040000050000008275
:00000001FF
