:020000040000FA
:0300000002007388
:1000130002028800000080FB1200A3B90003020063
:100023005DE4900F00780279018002F0A3D8FCD937
:10003300FA900F01AA82AB839000A6781A79018007
:1000430015E493A3AC82AD838A828B83F0A3AA8247
:10005300AB838C828D83D8E9D9E7758239758303A5
:100063007400120085758216758300740012008572
:1000730075D0007581BF75100075110F759F000253
:10008300001BC09FF59FE473D09F22D083D082C012
:100093009FE493C0E0740193C0E0740293F59F2240
:1000A30079012254657374696E672E2E2E0D0A0032
:1000B3004C49474854203D20000D0A0012008EB2DF
:1000C300020012008EDA020012008E1403001200E6
:1000D3008E25040012008EBB0400600C08C6C313F7
:1000E300C618C613C6D5E0F422700422600D18C6E4
:1000F300C333C608C633C6D5E0F41822251010AFA3
:1001030008F510400215118008F51040021511D2B0
:10011300AF222510F582E43511F583222510C5821F
:10012300C0E0E51134FFC583C0E0E510C395822428
:10013300F810AF08858311858210800885831185A7
:100143008210D2AFCEF0A3E520F0A37808E608F042
:10015300A3DEFAEFF0A3E58124FAF8E608F0A3E6BC
:1001630008F0A3E608F0A30808E608F0A3E608F001
:10017300A315811581D0E0FED0E0F8158115811516
:1001830081E8C0E0EEC0E022851183851082E0A300
:10019300FEE0A3F5207808E0A3F608DFFAE0A3FF6A
:1001A300E0A3C0E0E0A3C0E0E0A3C0E0E0A3C0E0C0
:1001B300E0A3C0E010AF0885821085831180088515
:1001C3008210858311D2AFD083D08202008BC0D03E
:1001D3002510C582C0E0E51134FFC583C0E0E510FA
:1001E300C3958224F310AF0885831185821080089C
:1001F300858311858210D2AFC8F0A3E9F0A3EAF09A
:10020300A3EBF0A37908E709F0A3D8FAECF0A3ED88
:10021300F0A3EEF0A3EFF0A3D0E0F0A3D0E0F0A3BF
:10022300D0E0F0A3E520F0A3E5F0F0A3228511834D
:10023300851082E0C0E0A3E0F9A3E0FAA3E0FBA30A
:100243007808E0F608A3DFFAE0FCA3E0FDA3E0FEF4
:10025300A3E0FFA3E0C0E0A3E0C0E0A3E0F5D0A3E8
:10026300E0F520A3E0A3F5F010AF088583118582A4
:10027300108008858311858210D2AFD082D083D0BD
:10028300E0F8D0E032C0E074F21201D1C28BD2F0B8
:10029300A28030F001B39280E5C1900F00F07A01A3
:1002A3007B00900F00E0F91200CB7F01020230784F
:1002B30000790080120000000AEAC394C840F6E8FF
:1002C3002401F8E93400F9C3E894DCE99405500407
:1002D3007A0080E502008B74F712011F7800790021
:1002E300801E8A828B83E0F5C18A828B83A3AA82D4
:1002F300AB83A2E950FCC2E9E82401F8E93400F930
:10030300C3E89CE99DA2D265D03340D67F010201A8
:100313008B7C007D00801089C1A2E950FCC2E9EC0E
:100323002401FCED3400FDC3EC9AED9BA2D265D011
:100333003340E402008B74F81200FF1200D77C0CE8
:100343007D007A017B0F1200C580427402120115F1
:10035300E02430F07C087D007A0E7B0F1200C57C10
:10036300017D007401120115AA82AB831200C57CC2
:10037300017D007402120115AA82AB831200C57CB1
:10038300027D007A177B0F1200C51200BFD2F0A2C4
:10039300A030F001B392A07B027A0379011200D15D
:1003A3008A088B09A808A9098808890974067808A6
:1003B3001200DDA808A909E508851082851183E5E7
:1003C30008F0851082851183E0C4540FC0E07401E6
:1003D300120115D0E0F0851082851183E0540FC01F
:1003E300E07402120115D0E0F07401120115E0C3AC
:1003F300940A400B7401120115E02437F08009744C
:1004030001120115E02430F07402120115E0C394C7
:100413000A500302034E7402120115E02437F0025E
:10042300035774F612011FEAFCEBFD740E69700E9C
:1004330090624B7401F09061BD7401F0800C906286
:100443004B7400F09061BD7400F0740F59F5B674ED
:10045300035CC454F042B6EDC4333354C042B643D4
:10046300B430A8BA8882758300858208858309A879
:10047300BB888275830085820885830943B440E580
:10048300B4A2E750FAA8BB888275830085820885E9
:100493008309740678081200ECE5BA1313543FFA83
:1004A3007B00E5082AF508E5093BF50953B47FAA63
:1004B30008AB097F0202018B43FD0143FF01D28098
:1004C300D2A053C6BFE59DA2E650FA75C6B843BE97
:1004D3000475F10075F33C43868043C50A43C2D8D3
:0E04E300D2E943864043A88475F20202008BE2
:040000050000007384
:00000001FF
