:020000040000FA
:030000000200DB20
:030013000203A045
:03004B0002035657
:10007B0002032E00000080FB12010BB900030200EB
:10008B00C5E4900F00780779018002F0A3D8FCD962
:10009B00FA900F06AA82AB8390010E782479018027
:1000AB0015E493A3AC82AD838A828B83F0A3AA82DF
:1000BB00AB838C828D83D8E9D9E77582297583044C
:1000CB0074001200ED75827E75830074001200EDD2
:1000DB0075D0007581BF75100075110F759F0002EB
:1000EB000083C09FF59FE473D09F22D083D082C042
:1000FB009FE493C0E0740193C0E0740293F59F22D8
:10010B0079012254657374696E672E2E2E0D0A00C9
:10011B005761746572466C6F77203D20004C2F4DF4
:10012B00494E000D0A001200F6CA03001200F60435
:10013B000400B90010BB0008E88AF084F8AAF0228A
:10014B00E4FBC8FA22EB70227B10C833C8C933C951
:10015B00335007C39AC3DBF280069A50012ADBEABD
:10016B00C833F4C8C933F4C9FA2275F008E4C833AC
:10017B00C8C933C933C99AC99B5004C92AC93BD5CD
:10018B00F0ECFBC833F4C8E4C9FA22600C08C6C310
:10019B0013C618C613C6D5E0F422251010AF08F508
:1001AB0010400215118008F51040021511D2AF2234
:1001BB002510F582E43511F583222510C582C0E0A8
:1001CB00E51134FFC583C0E0E510C3958224F81018
:1001DB00AF08858311858210800885831185821075
:1001EB00D2AFCEF0A3E520F0A37808E608F0A3DEAB
:1001FB00FAEFF0A3E58124FAF8E608F0A3E608F09D
:10020B00A3E608F0A30808E608F0A3E608F0A31598
:10021B00811581D0E0FED0E0F8158115811581E8BC
:10022B00C0E0EEC0E022851183851082E0A3FEE0E2
:10023B00A3F5207808E0A3F608DFFAE0A3FFE0A31C
:10024B00C0E0E0A3C0E0E0A3C0E0E0A3C0E0E0A317
:10025B00C0E010AF0885821085831180088582105D
:10026B00858311D2AFD083D0820200F3C0D025108A
:10027B00C582C0E0E51134FFC583C0E0E510C3952E
:10028B008224F310AF088583118582108008858343
:10029B0011858210D2AFC8F0A3E9F0A3EAF0A3EB6B
:1002AB00F0A37908E709F0A3D8FAECF0A3EDF0A3DB
:1002BB00EEF0A3EFF0A3D0E0F0A3D0E0F0A3D0E0FA
:1002CB00F0A3E520F0A3E5F0F0A3228511838510C0
:1002DB0082E0C0E0A3E0F9A3E0FAA3E0FBA3780877
:1002EB00E0F608A3DFFAE0FCA3E0FDA3E0FEA3E049
:1002FB00FFA3E0C0E0A3E0C0E0A3E0F5D0A3E0F5EE
:10030B0020A3E0A3F5F010AF088583118582108040
:10031B0008858311858210D2AFD082D083D0E0F8CC
:10032B00D0E032C0E0C0D0C082C083E58AA2E650E4
:10033B000C900F01E02401F0A3E03400F0758A006B
:10034B00C2EBD083D082D0D0D0E032C0E0C0D0E8B6
:10035B00C0E0E9C0E0C082C083900F03E02401F845
:10036B00A3E03400F9900F03E8F0A3E9F0C3E8949D
:10037B00E9E994034010900F037400F0A37400F0AC
:10038B00900F057401F0D083D082D0E0F9D0E0F863
:10039B00D0D0D0E032C0E074F2120277C28BD2F030
:1003AB00A28030F001B39280E5C1900F00F07A018A
:1003BB007B00900F00E0F91201377F010202D67427
:1003CB00F71201C578007900801E8A828B83E0F5D5
:1003DB00C18A828B83A3AA82AB83A2E950FCC2E9B8
:1003EB00E82401F8E93400F9C3E89CE99DA2D26541
:1003FB00D03340D67F010202317C007D0080108912
:10040B00C1A2E950FCC2E9EC2401FCED3400FDC3B0
:10041B00EC9AED9BA2D265D03340E40200F374F862
:10042B001201A543FD0175F25275FE1843FF01D26F
:10043B0080D2A053C6BFE59DA2E650FA75C6B8435D
:10044B00F440538CFB438D40439A105390E775DA7D
:10045B007D75DB0075E43375F10075F33C438680E5
:10046B0043C50A43C2D8D2E943864043A884D2AFDE
:10047B00D2B97C0C7D007A067B0F120131807B7424
:10048B00041201BBE02430F07C0C7D007A137B0F4F
:10049B001201317C017D00851082851183AA82AB0C
:1004AB00831201317C017D0074011201BBAA82AB66
:1004BB00831201317C017D0074021201BBAA82AB55
:1004CB00831201317C017D0074031201BBAA82AB44
:1004DB00831201317C017D0074041201BBAA82AB33
:1004EB00831201317C057D007A207B0F1201317C58
:1004FB00027D007A267B0F120131D2F0A2A030F0E0
:10050B0001B392A0900F037400F0A37400F0900F4E
:10051B00057400F0900F017400F0A37400F0900FBD
:10052B0005E0640170F8900F01E0F508A3E0F50910
:10053B00E50875F01EA4C508A8F075F000A428F80E
:10054B0075F01EE509A428F50974027808120196C6
:10055B00900F01E508F0A3E509F0900F01E0F8A377
:10056B00E0F97A107B2712013DE885108285118313
:10057B00F0900F01E0F8A3E0F97A107B2712013D10
:10058B00EAF8EBF97AE87B0312013DE8C0E074016D
:10059B001201BBD0E0F0900F01E0F8A3E0F97AE88C
:1005AB007B0312013DEAF8EBF97A647B0012013D03
:1005BB00E8C0E074021201BBD0E0F0900F01E0F84C
:1005CB00A3E0F97A647B0012013DEAF8EBF97A0AB1
:1005DB007B0012013DE8C0E074031201BBD0E0F0D8
:1005EB00900F01E0F8A3E0F97A0A7B0012013DEAD3
:1005FB00C0E074041201BBD0E0F08510828511833A
:10060B00E0C3940A400C851082851183E02437F0F7
:10061B00800A851082851183E02430F07401120169
:10062B00BBE0C3940A400B74011201BBE02437F00A
:10063B00800974011201BBE02430F074021201BB7B
:10064B00E0C3940A400B74021201BBE02437F08024
:10065B000974021201BBE02430F074031201BBE0F9
:10066B00C3940A400B74031201BBE02437F08009DA
:10067B0074031201BBE02430F074041201BBE0C31D
:10068B00940A500302048A74041201BBE02437F06D
:03069B00020493C3
:04000005000000DB1C
:00000001FF
