:020000040000FA
:1000000002003700000080FB120061B9000302000B
:1000100021E4900001780379018002F0A3D8FCD993
:10002000FA7582A17583007400120043758203750E
:100030008300740012004375D0007581BF759F0066
:10004000020008C09FF59FE473D09F22D083D08226
:10005000C09FE493C0E0740193C0E0740293F59FE5
:100060002279012212004C70000012004C9800000E
:100070007800790080120000000AEAC394C840F6B4
:10008000E82401F8E93400F9C3E894DCE994055068
:10009000047A0080E502004975C90043C9080200DE
:1000A0004943FD0143FF01D280D2A09000017400BA
:1000B000F0A37400F053C6BFE59DA2E650FA75C6E2
:1000C000B843BE0412006AD2AF1200641200641278
:0B00D0000064120064C280C2A080F730
:0400000500000037C0
:00000001FF
