:020000040000FA
:0300000002009269
:10005B000200C500000080FB1200BCB900030200C7
:10006B007CE4900001780379018002F0A3D8FCD9DD
:10007B00FA758200758301740012009E75825E759D
:10008B008300740012009E75D0007581BF759F00B0
:10009B00020063C09FF59FE473D09F22D083D08270
:1000AB00C09FE493C0E0740193C0E0740293F59F8A
:1000BB00227901221200A7D80000C0D0C0F0D2F0E4
:1000CB00A28030F001B39280D0F0D0D0327800799A
:1000DB000080120000000AEAC394C840F6E824012D
:1000EB00F8E93400F9C3E894DCE9940550047A008C
:1000FB0080E50200A443FD0143FF01D280D2A09012
:10010B0000017400F0A37400F053C6BFE59DA2E696
:10011B0050FA75C6B843BE0475CD7D75CB0F43CB76
:10012B0010D2AFD2BBD2F0A2A030F001B392A0128A
:04013B0000BF80F190
:040000050000009265
:00000001FF
