:020000040000FA
:0300000002007388
:1000130002028700000080FB1200A3B90003020064
:100023005DE4900F00780279018002F0A3D8FCD937
:10003300FA900F01AA82AB839000A6781979018008
:1000430015E493A3AC82AD838A828B83F0A3AA8247
:10005300AB838C828D83D8E9D9E7758238758303A6
:100063007400120085758216758300740012008572
:1000730075D0007581BF75100075110F759F000253
:10008300001BC09FF59FE473D09F22D083D082C012
:100093009FE493C0E0740193C0E0740293F59F2240
:1000A30079012254657374696E672E2E2E0D0A0032
:1000B300536D6F67203D20000D0A0012008E24044B
:1000C3000012008EBA040012008EB1020012008EDC
:1000D300D9020012008E130300600C08C6C313C6B6
:1000E30018C613C6D5E0F422700422600D18C6C3E7
:1000F30033C608C633C6D5E0F41822251010AF085E
:10010300F510400215118008F51040021511D2AF09
:10011300222510F582E43511F583222510C582C00E
:10012300E0E51134FFC583C0E0E510C3958224F8F0
:1001330010AF08858311858210800885831185821D
:1001430010D2AFCEF0A3E520F0A37808E608F0A321
:10015300DEFAEFF0A3E58124FAF8E608F0A3E60857
:10016300F0A3E608F0A30808E608F0A3E608F0A366
:1001730015811581D0E0FED0E0F815811581158138
:10018300E8C0E0EEC0E022851183851082E0A3FE83
:10019300E0A3F5207808E0A3F608DFFAE0A3FFE088
:1001A300A3C0E0E0A3C0E0E0A3C0E0E0A3C0E0E0C0
:1001B300A3C0E010AF088582108583118008858273
:1001C30010858311D2AFD083D08202008BC0D0259B
:1001D30010C582C0E0E51134FFC583C0E0E510C35C
:1001E300958224F310AF08858311858210800885DA
:1001F3008311858210D2AFC8F0A3E9F0A3EAF0A37C
:10020300EBF0A37908E709F0A3D8FAECF0A3EDF03B
:10021300A3EEF0A3EFF0A3D0E0F0A3D0E0F0A3D0DF
:10022300E0F0A3E520F0A3E5F0F0A3228511838598
:100233001082E0C0E0A3E0F9A3E0FAA3E0FBA37817
:1002430008E0F608A3DFFAE0FCA3E0FDA3E0FEA3C9
:10025300E0FFA3E0C0E0A3E0C0E0A3E0F5D0A3E0AB
:10026300F520A3E0A3F5F010AF0885831185821074
:100273008008858311858210D2AFD082D083D0E0ED
:10028300F8D0E032C0E074F21201D0C28BD2F0A2F7
:100293008030F001B39280E5C1900F00F07A017BCA
:1002A30000900F00E0F91200D67F0102022F7800C0
:1002B300790080120000000AEAC394C840F6E824DB
:1002C30001F8E93400F9C3E894DCE9940550047AB1
:1002D3000080E502008B74F712011E78007900801C
:1002E3001E8A828B83E0F5C18A828B83A3AA82ABA9
:1002F30083A2E950FCC2E9E82401F8E93400F9C318
:10030300E89CE99DA2D265D03340D67F0102018AE1
:100313007C007D00801089C1A2E950FCC2E9EC2475
:1003230001FCED3400FDC3EC9AED9BA2D265D03302
:1003330040E402008B74F81200FE1200C47C0C7DB2
:10034300007A017B0F1200D080427402120114E084
:100353002430F07C077D007A0E7B0F1200D07C01E5
:100363007D007401120114AA82AB831200D07C01B8
:100373007D007402120114AA82AB831200D07C02A6
:100383007D007A167B0F1200D01200CAD2F0A2A011
:1003930030F001B392A07B027A0379011200BE8A86
:1003A300088B09A808A9098808890974067808121E
:1003B30000DCA808A909E508851082851183E508F2
:1003C300F0851082851183E0C4540FC0E0740112DC
:1003D3000114D0E0F0851082851183E0540FC0E052
:1003E3007402120114D0E0F07401120114E0C394FA
:1003F3000A400B7401120114E02437F080097401E0
:10040300120114E02430F07402120114E0C3940AC0
:10041300500302034D7402120114E02437F0020367
:100423005674F612011EEAFCEBFD740E69700E9011
:10043300624B7401F09061BD7401F0800C90624BCB
:100443007400F09061BD7400F0740F59F5B6740335
:100453005CC454F042B6EDC4333354C042B643B423
:1004630030A8BA8882758300858208858309A8BB72
:10047300888275830085820885830943B440E5B487
:10048300A2E750FAA8BB888275830085820885831A
:1004930009740678081200EBE5BA1313543FFA7B8C
:1004A30000E5082AF508E5093BF50953B47FAA08D6
:1004B300AB097F0202018A43FD0143FF01D280D2CF
:1004C300A053C6BFE59DA2E650FA75C6B843BE0465
:1004D30075F10075F33C43868043C50A43C2D8D205
:0D04E300E943864043A88475F20202008BB5
:040000050000007384
:00000001FF
