:020000040000FA
:1000000002002700000080FB120051B9000302002B
:100010001175825A7583007400120033758203755E
:100020008300740012003375D0007581BF759F0086
:10003000020008C09FF59FE473D09F22D083D08236
:10004000C09FE493C0E0740193C0E0740293F59FF5
:100050002279012212003C74000075FD2143FF014A
:10006000D285C280C2A0120054C285D280D2A01212
:10007000005480EC7800790080120000000AEAC386
:1000800094C840F6E82401F8E93400F9C3E89488FC
:0C009000E9941350047A0080E502003966
:0400000500000027D0
:00000001FF
