:020000040000FA
:0300000002007388
:100013000202E500000080FB1200A3B90003020006
:100023005DE4900F00780279018002F0A3D8FCD937
:10003300FA900F01AA82AB839000A6781E79018003
:1000430015E493A3AC82AD838A828B83F0A3AA8247
:10005300AB838C828D83D8E9D9E775829675830348
:100063007400120085758216758300740012008572
:1000730075D0007581BF75100075110F759F000253
:10008300001BC09FF59FE473D09F22D083D082C012
:100093009FE493C0E0740193C0E0740293F59F2240
:1000A30079012254657374696E672E2E2E0D0A0032
:1000B3005261696E203D200020202020000D0A009F
:1000C30012008E0F030012008E37030012008E7190
:1000D300030012008EE1040012008E770500B900C0
:1000E30010BB0008E88AF084F8AAF022E4FBC8FAFF
:1000F30022EB70227B10C833C8C933C9335007C3FE
:100103009AC3DBF280069A50012ADBEAC833F4C8AB
:10011300C933F4C9FA2275F008E4C833C8C933C92E
:1001230033C99AC99B5004C92AC93BD5F0ECFBC813
:1001330033F4C8E4C9FA22600C08C6C313C618C650
:1001430013C6D5E0F422700422600D18C6C333C66B
:1001530008C633C6D5E0F41822251010AF08F510F1
:10016300400215118008F51040021511D2AF222567
:1001730010F582E43511F583222510C582C0E0E530
:100183001134FFC583C0E0E510C3958224F810AF96
:10019300088583118582108008858311858210D29A
:1001A300AFCEF0A3E520F0A37808E608F0A3DEFACB
:1001B300EFF0A3E58124FAF8E608F0A3E608F0A33C
:1001C300E608F0A30808E608F0A3E608F0A3158103
:1001D3001581D0E0FED0E0F8158115811581E8C0C6
:1001E300E0EEC0E022851183851082E0A3FEE0A348
:1001F300F5207808E0A3F608DFFAE0A3FFE0A3C048
:10020300E0E0A3C0E0E0A3C0E0E0A3C0E0E0A3C05F
:10021300E010AF08858210858311800885821085E0
:100223008311D2AFD083D08202008BC0D02510C5FA
:1002330082C0E0E51134FFC583C0E0E510C39582B9
:1002430024F310AF088583118582108008858311FC
:10025300858210D2AFC8F0A3E9F0A3EAF0A3EBF0D4
:10026300A37908E709F0A3D8FAECF0A3EDF0A3EE25
:10027300F0A3EFF0A3D0E0F0A3D0E0F0A3D0E0F040
:10028300A3E520F0A3E5F0F0A32285118385108276
:10029300E0C0E0A3E0F9A3E0FAA3E0FBA37808E061
:1002A300F608A3DFFAE0FCA3E0FDA3E0FEA3E0FF72
:1002B300A3E0C0E0A3E0C0E0A3E0F5D0A3E0F52015
:1002C300A3E0A3F5F010AF088583118582108008A1
:1002D300858311858210D2AFD082D083D0E0F8D04D
:1002E300E032C0E074F212022EC28BD2F0A2803050
:1002F300F001B39280E5C1900F00F07A017B00908A
:100303000F00E0F91200CF7F0102028D780079001F
:1003130080120000000AEAC394C840F6E82401F8FA
:10032300E93400F9C3E894DCE9940550047A0080C9
:10033300E502008B74F712017C78007900801E8A35
:10034300828B83E0F5C18A828B83A3AA82AB83A2CB
:10035300E950FCC2E9E82401F8E93400F9C3E89C58
:10036300E99DA2D265D03340D67F010201E87C002B
:100373007D00801089C1A2E950FCC2E9EC2401FC94
:10038300ED3400FDC3EC9AED9BA2D265D03340E47B
:1003930002008B74F812015C1200DB7C0C7D007A86
:1003A300017B0F1200C98059C280C2A07C077D0067
:1003B3007A0E7B0F1200C97C017D008510828511A6
:1003C30083AA82AB831200C97C017D0074011201F0
:1003D30072AA82AB831200C97C017D0074021201F0
:1003E30072AA82AB831200C97C047D007A167B0F4C
:1003F3001200C97C027D007A1B7B0F1200C9120018
:10040300C37B027A0379011200D58A088B09AC08F1
:10041300AD098C088D097406780812013AAC08AD51
:1004230009ECF8EDF97A647B001200E1E8851082AB
:10043300851183F0ECF8EDF97A647B001200E1EAB0
:10044300F8EBF97A0A7B001200E1E8C0E0740112CC
:100453000172D0E0F0ECF8EDF97A0A7B001200E1CA
:10046300EAC0E07402120172D0E0F08510828511B7
:1004730083E0C3940A400C851082851183E02437FE
:10048300F0800A851082851183E02430F074011214
:100493000172E0C3940A400B7401120172E0243725
:1004A300F080097401120172E02430F07402120129
:1004B30072E0C3940A400B7402120172E02437F015
:1004C30080097402120172E02430F0C3EC9481EDD0
:1004D300940050030203ABD280D2A00203AF74F6A0
:1004E30012017CEAFCEBFD740E69700E90624B7492
:1004F30001F09061BD7401F0800C90624B7400F0C8
:100503009061BD7400F0740F59F5B674035CC45464
:10051300F042B6EDC4333354C042B643B430A8BA44
:100523008882758300858208858309A8BB888275C4
:10053300830085820885830943B440E5B4A2E7506C
:10054300FAA8BB88827583008582088583097406AF
:100553007808120149E5BA1313543FFA7B00E50802
:100563002AF508E5093BF50953B47FAA08AB097FCF
:10057300020201E843FD0175FE1843FF01D280D258
:10058300A053C6BFE59DA2E650FA75C6B843BE04A4
:1005930075F10075F33C43868043C50A43C2D8D244
:0D05A300E943864043A88475F20202008BF4
:040000050000007384
:00000001FF
