:020000040000FA
:0300000002007388
:10001300020A2800000080FB1200A3B900030200BB
:100023005DE4900F00780279018002F0A3D8FCD937
:10003300FA900F01AA82AB839000A67849790180D8
:1000430015E493A3AC82AD838A828B83F0A3AA8247
:10005300AB838C828D83D8E9D9E77582D975830AFE
:100063007400120085758216758300740012008572
:1000730075D0007581BF75100075110F759F000253
:10008300001BC09FF59FE473D09F22D083D082C012
:100093009FE493C0E0740193C0E0740293F59F2240
:1000A30079012254657374696E672E2E2E0D0A0032
:1000B30054656D7065726174757265203D20002012
:1000C3002020200068756D6964697479203D2000E3
:1000D3000D0A000AD7233C5C8F1EC254E3253D0062
:1000E3000080C0333333400024744912008EC90D9D
:1000F3000012008ED50D0012008EF90D0012008E35
:10010300260E0012008E3C0E0012008E510E0012BD
:10011300008E970E0012008EDD0E0012008E660F09
:100123000012008E710F0012008E520A0012008E10
:100133007A0A0012008EB40A00E9799EC608CAC67C
:1001430008CBC608CCC6C370207996CACBCC70192D
:10015300798ECBCC70137986CC700EF9802ACA3392
:10016300CACB33CBCC33CC331930E7F2CCCBCA3345
:1001730050147004EA30E00DE4CA3ACACB3BCBCC4E
:100183003CCC500209C3E913C6CC182313C6CB18C1
:10019300C6CA18C6F9228A088B098C0A8D0B7808FF
:1001A3001201E320F01430E72B74FFFCFBFA747F99
:1001B3008022E4FCFBFA7480801AB48008BC00F24D
:1001C300BB00EF800F50EBF9E4C39AFAE49BFBE426
:1001D3009CFCE499C6CC18C6CB18C6CA18C6F9222B
:1001E300E4C9C608CAC608CBC6D3330308CCC63392
:1001F30092F0C3947F402E94184019C9B90704CADA
:10020300CBCC225025C309CA33CACB33CBCC33CC96
:1002130033D9F422F4600DC9CCC313CB13CBCA1367
:10022300CAD9F6CC22E4FCFBFA2214FCFBFA22E640
:10023300C33318461846184622E7C33319471947EC
:10024300194722181818E6084608700AE608C33347
:100253007005E633F4220822191919E709470970D2
:100263000AE709C3337005E733F4220922E6084697
:1002730008C3134608336002E633F422E70947094B
:10028300C3134709336002E733F42200120270609C
:100293004F12027F6012E7548066F6120246701115
:1002A30012023C703B090909F4F618F618F618F621
:1002B3002212025B701512023208080860EAE64453
:1002C3007FF618768018E4F618F6221202326016CA
:1002D30012023C7012E4F608F608F608E65480F6BB
:1002E30009090918181822EAC0E0EBC0E0ECC0E0E5
:1002F300EDC0E0E687F0A4FBACF008E687F0A42CA1
:10030300FCE435F0FA1809E687F0A42C4B6002747C
:1003130001CA35F0FCE433FB09E687F0D2F7A42CDD
:10032300CB35F0FC1908E687F0A42BCC35F0FBE4C1
:1003330033FD0819E687F0D2E7A42C4ACB35F0CD7C
:100343003400FC09E687F0D2E7A42DCC35F0FDE4B8
:1003530033FA0918E687F0D2F7A42CCD35F0CA3466
:1003630000FC08E687F0D2E7D2F7A42ACC35F07A6E
:100373007E20E70B0ACB33CBCD33CDCC33CC33CB81
:100383003350147004ED30E00ED2F1E4CD3DCDCC0A
:100393003CCC3B5005DA05C2F1EB547FC63308E68B
:1003A3003392F0FBE73309E733C39A502D2B7019CF
:1003B3000C0D4C4D70151806E608C333700D20F173
:1003C3000AA2F013F6E418800B4024E4F630F0029E
:1003D300768018F618F618F68024D33B1450107460
:1003E300FFA2F013F6187680E418F618F6800FA231
:1003F300F013F618E63303F618ECF618EDF6D0E032
:10040300FDD0E0FCD0E0FBD0E0FA2212027F604690
:10041300120270603DE9687008F618F618F618F6CF
:1004230022748067F7120442090909748067F7226E
:10043300120270601D12027F7005191919801A12B9
:100443000246701F12025BC37003E6673319191962
:1004530040071818182208080874FFF618F618F64B
:1004630018F62212025B601712023C702192F012FE
:1004730002327019501720F014080808090909E717
:10048300F61819E7F61819E7F61819E7F622120213
:100493003260E6E869701F0808E62480F608E4364F
:1004A300F618547FB47F0CE654806007F6E418F620
:1004B30018F622181822E9C6CC08C6CD08C6CE08FD
:1004C300C6CFC0E0E8C0E0EAC0E0EBC0E009E9F86D
:1004D30009E7FA09E7FBE6F918E6F8C3EC98ED99A2
:1004E300EE9AEBC2E7F5F0EFC2E795F0500E600C21
:1004F300EBCFFBEACEFAE9CDF9E8CCF8EAA2E7D2F2
:10050300E7FAEB33FB13F5F0EEA2E7D2E7FEEF33A6
:10051300FFC5F013A2E730E601B313C5F0C3C0E093
:10052300C0F07F00C39BFB605B9418600C401AD043
:10053300E023F9D0E0F80206118AF0E9486003D21B
:10054300F0E4AFF0FAF9F8803BEB30E40D89F0EA20
:100553006003D2F0E4AFF0F9CAF8EB30E30D88F0B2
:10056300EF6002D2F0AFF0E4CAC9F8EB54076014AD
:10057300FBC3EA13FAE913F9E813F8EF135002D2B5
:10058300E0FFDBEDD0E0C0E030E739C3E49FFFF5E7
:10059300F0EC98FC42F0ED99FD42F0EE9AFE42F049
:1005A300D0E0F9D0E0F8E5F0607AE923F9EE20E74E
:1005B30042D8028067C3EF33FFEC33FCED33FDEE2B
:1005C30033FE80EAEC28FCED39FDEE3AFED0E02361
:1005D300F9D0E0F84002801BC3EE13FEED13FDECEF
:1005E30013FCEF135002D2E0FF08B800067F7F74BC
:1005F300FF802EEF3350178CF020F00260100CBCFC
:10060300000C0DBD00080EBE000408E860DFE933EE
:10061300E813FFEE2313FE4F4D4C8008E95480FF8F
:10062300E4FEFDFCEE33EF33F47004FCFD7E80D07A
:10063300E0FBD0E0FAD0E0F8D0E0CFC618CEC61881
:10064300CDC618CCC6F922120270700418181822ED
:1006530012027F700D74FFF61819F61819F618199F
:10066300F622E7548066F6120232700F12023C70D3
:10067300F014F608F608F608F680D112023C700C66
:10068300F608F608768008E6447F80EC12025E7076
:100693000C12024960BFE65480F6E480BB120249A3
:1006A300700519191980A5E869700C763F187680D2
:1006B30018F618F6E8F922E6CDC0E018ECC0E0E63B
:1006C30033CD33CDD313F6E719FCE7191933CC3304
:1006D300C3947F400ECD9D502408E65480F6E41861
:1006E300F6800FF4043D14501408E6447FF61876A0
:1006F30080E418F618F6D0E0FCD0E0FD22CCD3134A
:10070300CCFD18E4C6CBC0E018E4C6CAC0E00808B4
:10071300ED08C633E613F618E433C675F003C3CA0F
:1007230097CA09CB97CB199C40047D08802EBD0046
:10073300030207F316B6FF050606081618C3CA33E5
:10074300CACB33CB33CA27CA09CB37CB193CC37DBA
:1007530008803E187D0820E75CC633C6CA33CACB7F
:1007630033CB33DDF1D5F0EB30E77BCA97CA09CB46
:10077300974ACB199C406F4B7025E620E021806699
:10078300187D08C3CA97CA09CB97CB199CD3C63324
:10079300C6CA33CACB33CB3350C9DDE7D5F0E1D377
:1007A300E4C636C608C636C608C636C608C636C642
:1007B3001818188031C3CA97CA09CB97CB199CB3B1
:1007C3004097C633C6CA33CACB33CB33DD34D5F0F7
:1007D3002EC6A2E0C640C8CA27CA09CB37194A7039
:1007E300BECB3CB480B90808E63308E633601F1873
:1007F3001818D0E0FAD0E0FBD0E0FCD0E0FD2218DE
:100803007D08CA27CA09CB37CB193CD3808013F69E
:1008130018E4B67F11F618B6FF0EF618C60470D2A8
:100823000808768080CAF618F618F680C57009089D
:100833000808226016181818C6C333C608C633C67C
:1008430008C633C608C633C6D5E0EA22E647F6082B
:1008530009E647F60809E647F60809E647F622E0FF
:10086300F608A3E0F608A3E0F608A3E0F622E6F014
:1008730008A3E6F008A3E6F008A3E6F022E0FAA353
:10088300E0FBA3E0FCA3E0FD22700422600D18C688
:10089300C333C608C633C6D5E0F41822251010AFFB
:1008A30008F510400215118008F51040021511D209
:1008B300AF222510F582E43511F583222510C58278
:1008C300C0E0E51134FFC583C0E0E510C395822481
:1008D300F810AF0885831185821080088583118500
:1008E3008210D2AFCEF0A3E520F0A37808E608F09B
:1008F300A3DEFAEFF0A3E58124FAF8E608F0A3E615
:1009030008F0A3E608F0A30808E608F0A3E608F059
:10091300A315811581D0E0FED0E0F815811581156E
:1009230081E8C0E0EEC0E022851183851082E0A358
:10093300FEE0A3F5207808E0A3F608DFFAE0A3FFC2
:10094300E0A3C0E0E0A3C0E0E0A3C0E0E0A3C0E018
:10095300E0A3C0E010AF088582108583118008856D
:100963008210858311D2AFD083D08202008BC0D096
:100973002510C582C0E0E51134FFC583C0E0E51052
:10098300C3958224F310AF088583118582108008F4
:10099300858311858210D2AFC8F0A3E9F0A3EAF0F2
:1009A300A3EBF0A37908E709F0A3D8FAECF0A3EDE1
:1009B300F0A3EEF0A3EFF0A3D0E0F0A3D0E0F0A318
:1009C300D0E0F0A3E520F0A3E5F0F0A322851183A6
:1009D300851082E0C0E0A3E0F9A3E0FAA3E0FBA363
:1009E3007808E0F608A3DFFAE0FCA3E0FDA3E0FE4D
:1009F300A3E0FFA3E0C0E0A3E0C0E0A3E0F5D0A341
:100A0300E0F520A3E0A3F5F010AF088583118582FC
:100A1300108008858311858210D2AFD082D083D015
:100A2300E0F8D0E032C0E074F2120971C28BD2F068
:100A3300A28030F001B39280E5C1900F00F07A01FB
:100A43007B00900F00E0F91201367F010209D07894
:100A530000790080120000000AEAC394C840F6E857
:100A63002401F8E93400F9C3E894DCE9940550045F
:100A73007A0080E502008B74F71208BF78007900D2
:100A8300801E8A828B83E0F5C18A828B83A3AA822C
:100A9300AB83A2E950FCC2E9E82401F8E93400F988
:100AA300C3E89CE99DA2D265D03340D67F010209F9
:100AB3002B7C007D00801089C1A2E950FCC2E9ECC7
:100AC3002401FCED3400FDC3EC9AED9BA2D265D06A
:100AD3003340E402008B74F412089F43FD0143FF8B
:100AE30001D280D2A053C6BFE59DA2E650FA75C6D7
:100AF300B843BE0475F10075F33C43868043C50AD1
:100B030043C2D8D2E943864043A8841200EE7C0C4A
:100B13007D007A017B0F120130807874051208B5CD
:100B2300E02430F07C0E7D007A0E7B0F1201307CC6
:100B3300017D0074011208B5AA82AB831201307CD7
:100B4300017D0074021208B5AA82AB831201307CC6
:100B5300047D007A1D7B0F1201307C0B7D007A220D
:100B63007B0F1201307C017D0074041208B5AA8248
:100B7300AB831201307C017D0074051208B5AA8293
:100B8300AB831201307C027D007A2E7B0F12013081
:100B930012012A79031201188A088B098C0A8D0B1A
:100BA300E4C50BC50AC509F508780812013C7408A9
:100BB3001208B5780812087174081208B57808127B
:100BC3000862900F31780C1208627808790C1202CF
:100BD3008E900F35780C1208627808790C12043362
:100BE30074081208B5780812087174081208B5124F
:100BF3000880120199E508851082851183E508F0C4
:100C0300851082851183E075F00A84A8F075F00AD7
:100C1300851082851183E084C454F0288510828571
:100C23001183F0851082851183E0C4540FC0E074F2
:100C3300011208B5D0E0F074011208B5E0C3940ABC
:100C4300400B74011208B5E02437F08009740112D7
:100C530008B5E02430F0851082851183E0540FC07D
:100C6300E074021208B5D0E0F074021208B5E0C3D4
:100C7300940A400B74021208B5E02437F08009741B
:100C8300021208B5E02430F079051201188A088BA6
:100C9300098C0A8D0BE4C50BC50AC509F50878084C
:100CA30012013C74081208B578081208717408120E
:100CB30008B57808120862900F39780C1208627828
:100CC30008790C12028E900F3D780C120862780896
:100CD300790C120433C008C009C00AC00B7408128F
:100CE30008B57808120862900F41780C12086278F0
:100CF30008790C12028E74081208B5780C12086277
:100D03007808790C12028E900F45780C12086278DD
:100D130008790C12064AD00FD00ED00DD00C780CE7
:100D2300790812040E74081208B5780C120871744D
:100D3300081208B5120880120199E5087403120815
:100D4300B5E508F074031208B5E075F00A84A8F05D
:100D530075F00A74031208B5E084C454F028C0E0A7
:100D630074031208B5D0E0F074031208B5E0C4545C
:100D73000FC0E074041208B5D0E0F074041208B593
:100D8300E0C3940A400B74041208B5E02437F080E2
:100D93000974041208B5E02430F074031208B5E0B6
:100DA300540FC0E074051208B5D0E0F074051208C2
:100DB300B5E0C3940A5003020B1E74051208B5E094
:100DC3002437F0020B2753F63853F4F943FE060297
:100DD300008B74F71208BFD2917E00800E12011EA1
:100DE300C29212011ED29212011E0EEEC3940B4048
:100DF300EC7F0102092BC082C083D291C2921201FF
:100E03001ED29212011EC29112011EC29212011E23
:100E1300D29212011ED29112011EC292D083D082AD
:100E230002008BC082C08353FEFD12011EA291E417
:100E330033F9D083D08202008BC082C083D2921256
:100E4300011EC29212011ED083D08202008B74F65F
:100E53001208BFE9FF12011EC29212011E7E00801A
:100E63000DC29112011ED29212011EC2920EEEC346
:100E7300940850187508017509007407C39E780813
:100E830012088CE5085F60D9D29180D753FEFD7FAD
:100E93000202092B74F41208BF75080053FEFD12F9
:100EA300011E7E008024120100E96013750A01759A
:100EB3000B007407C39E780A12088CE50A420812D5
:100EC300011ED29212011EC2920EEEC3940840D6A6
:100ED30043FE02A9087F0402092B74F01208BFE93C
:100EE300FE80031200F41200FAEEF912010C120153
:100EF30000E970EF120106793C120124120112E994
:100F0300F508E4F509F50AF50B74107808120830B2
:100F1300C29112011E120106120112E9F50C750DA0
:100F230000E4C50CF50DE4F50EF50F7808790C1205
:100F3300084FC29112011E120106120112E9F50CAB
:100F4300E4F50DF50EF50F7808790C12084FD291E0
:100F530012011E120106AA08AB09AC0AAD0B7F08E9
:100F630002092B000000000000000002008B780043
:100F7300801C00000000000000000000EA2401FAC9
:100F8300EB3400FBC3EA9488EB941340E508E8C311
:0C0F93009950067A007B0080EB02008B76
:040000050000007384
:00000001FF
