:020000040000FA
:0300000002009A61
:100063000200CD00000080FB1200C4B900030200AF
:1000730084E4900001780379018002F0A3D8FCD9CD
:10008300FA75824375830174001200A67582667542
:10009300830074001200A675D0007581BF759F00A0
:1000A30002006BC09FF59FE473D09F22D083D08260
:1000B300C09FE493C0E0740193C0E0740293F59F82
:1000C300227901221200AF1B0100C0E0C0D0C08220
:1000D300C083C0F0900001C3E094F4A3E094015006
:1000E3000E900001E02401F0A3E03400F0801E90A4
:1000F30000017400F0A37400F0D2F0A28030F0018C
:10010300B39280D2F0A2A030F001B392A0D0F0D08D
:1001130083D082D0D0D0E032780079008012000002
:10012300000AEAC394C840F6E82401F8E93400F968
:10013300C3E894DCE9940550047A0080E50200AC3E
:1001430043FD0143FF01D280D2A09000017400F06F
:10015300A37400F053C6BFE59DA2E650FA75C6B876
:1001630043BE0475ED7D75EB0F43EB10D2AFD2BCEC
:0F017300D2F0A2A030F001B392A01200C780F129
:040000050000009A5D
:00000001FF
