:020000040000FA
:1000000002002700000080FB120051B9000302002B
:100010001175828075830074001200337582037538
:100020008300740012003375D0007581BF759F0086
:10003000020008C09FF59FE473D09F22D083D08236
:10004000C09FE493C0E0740193C0E0740293F59FF5
:100050002279012212003C5A0000780079008010B9
:10006000000AEAC3941440F8E82401F8E93400F9DE
:10007000C3E894DCE9940550047A0080E502003975
:1000800043FD0143FF0153FDEF8007D280D2A01250
:0C0090000054A28450F5C280C2A080F38E
:0400000500000027D0
:00000001FF
