:020000040000FA
:030000000200BB40
:03002B000203FAD3
:10006B000203BD00000080FB1200EBB9000302008D
:10007B00A5900F00AA82AB839000EE7809790180DE
:10008B0015E493A3AC82AD838A828B83F0A3AA82FF
:10009B00AB838C828D83D8E9D9E775824175830553
:1000AB0074001200CD75826E75830074001200CD42
:1000BB0075D0007581BF75100075110F759F00020B
:1000CB000073C09FF59FE473D09F22D083D082C072
:1000DB009FE493C0E0740193C0E0740293F59F22F8
:1000EB0079012200000000008000001200D62C04D1
:1000FB00001200D65404001200D66C04001200D675
:10010B00730400080808EAC0E0EBC0E086F0E7A43F
:10011B00FA180986F0E7A42AFA180986F0E7A42A48
:10012B00FA180986F0E7A42AFA1986F0E7A4FBE58A
:10013B00F02AFA190886F0E7A42BFBE5F03AFA1936
:10014B000886F0E7A42BFBE5F03AFA18180986F0BD
:10015B00E7A4C5F02BFBE43AFA1908E7C5F0C6A4EF
:10016B0026F6E5F03BFBE43AFA1886F0E7A4F6E551
:10017B00F00826F6E43B08F6E43A08F6D0E0FBD0AC
:10018B00E0FA226017080808C6A2E713C618C613C0
:10019B00C618C613C618C613C6D5E0E922700908DF
:1001AB000808226016181818C6C333C608C633C60B
:1001BB0008C633C608C633C6D5E0EA22E026F008E7
:1001CB00A3E036F008A3E036F008A3E036F022E017
:1001DB0046F008A3E046F008A3E046F008A3E0468B
:1001EB00F022E0F608A3E0F608A3E0F608A3E0F699
:1001FB0022E0FAA3E0FBA3E0FCA3E0FD22EAF0A3DC
:10020B00EBF0A3ECF0A3EDF022600D08C6A2E71310
:10021B00C618C613C6D5E0F322251010AF08F5108B
:10022B00400215118008F51040021511D2AF22C003
:10023B00D0251010AF08F510500205118008F510ED
:10024B0050020511D2AFD0D0222510C582C0E0E5F7
:10025B001134FFC583C0E0E510C3958224F810AFBD
:10026B00088583118582108008858311858210D2C1
:10027B00AFCEF0A3E520F0A37808E608F0A3DEFAF2
:10028B00EFF0A3E58124FAF8E608F0A3E608F0A363
:10029B00E608F0A30808E608F0A3E608F0A315812A
:1002AB001581D0E0FED0E0F8158115811581E8C0ED
:1002BB00E0EEC0E022851183851082E0A3FEE0A36F
:1002CB00F5207808E0A3F608DFFAE0A3FFE0A3C06F
:1002DB00E0E0A3C0E0E0A3C0E0E0A3C0E0E0A3C087
:1002EB00E010AF0885821085831180088582108508
:1002FB008311D2AFD083D0820200D3C0D02510C5DA
:10030B0082C0E0E51134FFC583C0E0E510C39582E0
:10031B0024F310AF08858311858210800885831123
:10032B00858210D2AFC8F0A3E9F0A3EAF0A3EBF0FB
:10033B00A37908E709F0A3D8FAECF0A3EDF0A3EE4C
:10034B00F0A3EFF0A3D0E0F0A3D0E0F0A3D0E0F067
:10035B00A3E520F0A3E5F0F0A3228511838510829D
:10036B00E0C0E0A3E0F9A3E0FAA3E0FBA37808E088
:10037B00F608A3DFFAE0FCA3E0FDA3E0FEA3E0FF99
:10038B00A3E0C0E0A3E0C0E0A3E0F5D0A3E0F5203C
:10039B00A3E0A3F5F010AF088583118582108008C8
:1003AB00858311858210D2AFD082D083D0E0F8D074
:1003BB00E032C0E074F2120306E589C394014027D2
:1003CB007589007E007F008015D2F0A28030F0018D
:1003DB00B392801200F6EE2401FEEF3400FFC3EE61
:1003EB009405EF940040E27589007F01020365C01C
:1003FB00E074F2120306C2C77E007F008015D2F0B4
:10040B00A2A030F001B392A01200F6EE2401FEEF91
:10041B003400FFC3EE9405EF940040E27F0102032A
:10042B00657800790080120000000AEAC394C84086
:10043B00F6E82401F8E93400F9C3E894DCE9940503
:10044B0050047A0080E50200D3E9C39404500C53A6
:10045B00BEFCE942BE4387010080037587000200A2
:10046B00D3D2ADC2C70200D374F012025474FC1283
:10047B0002248A088B09900F001201FC85108285DB
:10048B00118312020885950CE4F50DF50EF50F8519
:10049B001082851183780C1201DA85960CE4F50D28
:1004AB00F50EF50F7408780C1201A88510828511D2
:1004BB0083780C1201DA85970CE4F50DF50EF50F28
:1004CB007410780C1201A8851082851183780C1298
:1004DB0001DAE4F50AF50B900F04780C1201ED78B4
:1004EB0008790C12010E8510828511837808120190
:1004FB00C785108285118378081201ED7410780876
:10050B0012018EE508F59785108285118378081204
:10051B0001ED74087808120214E508F5968510822F
:10052B0085118378081201EDE508F5957404120224
:10053B003A7F080202C043FD0143FF01D280D2A0E3
:10054B0075AB10758C11758900D2BD53C6BFE59D77
:10055B00A2E650FA75C6B843BE0475AB10758C1184
:10056B00758900D2BDD2AF1201027A057B00120150
:08057B000879021200FC80F275
:04000005000000BB3C
:00000001FF
