:020000040000FA
:030000000200AB50
:030013000206AC36
:10004B000206AF00000080FB1200DBB900030200C8
:10005B0095E4900F00780979018002F0A3D8FCD9C0
:10006B00FA900F08AA82AB839000DE782979018081
:10007B0015E493A3AC82AD838A828B83F0A3AA820F
:10008B00AB838C828D83D8E9D9E77582477583075B
:10009B0074001200BD75824E75830074001200BD92
:1000AB0075D0007581BF75100075110F759F00021B
:1000BB000053C09FF59FE473D09F22D083D082C0A2
:1000CB009FE493C0E0740193C0E0740293F59F2208
:1000DB00790122556C747261736F6E6963203D20D8
:1000EB0000636D000D0A00000048420024744900B3
:1000FB0000AA43000000400000C8421200C6C70619
:10010B00001200C6E506001200C60D0700E9799E35
:10011B00C608CAC608CBC608CCC6C370207996CA17
:10012B00CBCC7019798ECBCC70137986CC700EF941
:10013B00802ACA33CACB33CBCC33CC331930E7F25A
:10014B00CCCBCA3350147004EA30E00DE4CA3ACA7F
:10015B00CB3BCBCC3CCC500209C3E913C6CC182308
:10016B0013C6CB18C6CA18C6F9228A088B098C0A83
:10017B008D0B78081201BF20F01430E72B74FFFCB5
:10018B00FBFA747F8022E4FCFBFA7480801AB48043
:10019B0008BC00F2BB00EF800F50EBF9E4C39AFAF6
:1001AB00E49BFBE49CFCE499C6CC18C6CB18C6CAEE
:1001BB0018C6F922E4C9C608CAC608CBC6D333038E
:1001CB0008CCC63392F0C3947F402E94184019C9C3
:1001DB00B90704CACBCC225025C309CA33CACB33C7
:1001EB00CBCC33CC33D9F422F4600DC9CCC313CBB5
:1001FB0013CBCA13CAD9F6CC22E4FCFBFA2214FCAB
:10020B00FBFA22E6C33318461846184622E7C333D7
:10021B0019471947194722181818E6084608700A93
:10022B00E608C3337005E633F4220822191919E7DF
:10023B00094709700AE709C3337005E733F422094C
:10024B0022E6084608C3134608336002E633F4225D
:10025B00E7094709C3134709336002E733F4220068
:10026B0012024C604F12025B6012E7548066F6126A
:10027B0002227011120218703B090909F4F618F6E4
:10028B0018F618F622120237701512020E0808081B
:10029B0060EAE6447FF618768018E4F618F6221228
:1002AB00020E60161202187012E4F608F608F60831
:1002BB00E65480F609090918181822EAC0E0EBC0C9
:1002CB00E0ECC0E0EDC0E0E687F0A4FBACF008E6A4
:1002DB0087F0A42CFCE435F0FA1809E687F0A42C7F
:1002EB004B60027401CA35F0FCE433FB09E687F07E
:1002FB00D2F7A42CCB35F0FC1908E687F0A42BCC55
:10030B0035F0FBE433FD0819E687F0D2E7A42C4A5D
:10031B00CB35F0CD3400FC09E687F0D2E7A42DCC29
:10032B0035F0FDE433FA0918E687F0D2F7A42CCDAB
:10033B0035F0CA3400FC08E687F0D2E7D2F7A42ADE
:10034B00CC35F07A7E20E70B0ACB33CBCD33CDCC3B
:10035B0033CC33CB3350147004ED30E00ED2F1E4D8
:10036B00CD3DCDCC3CCC3B5005DA05C2F1EB547FF7
:10037B00C63308E63392F0FBE73309E733C39A50F1
:10038B002D2B70190C0D4C4D70151806E608C33348
:10039B00700D20F10AA2F013F6E418800B4024E450
:1003AB00F630F002768018F618F618F68024D33B58
:1003BB0014501074FFA2F013F6187680E418F61898
:1003CB00F6800FA2F013F618E63303F618ECF618C6
:1003DB00EDF6D0E0FDD0E0FCD0E0FBD0E0FA22124D
:1003EB00024C70041818182212025B700D74FFF681
:1003FB001819F61819F61819F622E7548066F61232
:10040B00020E700F12021870F014F608F608F608B8
:10041B00F680D1120218700CF608F608768008E602
:10042B00447F80EC12023A700C12022560BFE65436
:10043B0080F6E480BB120225700519191980A5E816
:10044B0069700C763F18768018F618F6E8F922E6F4
:10045B00CDC0E018ECC0E0E633CD33CDD313F6E7D7
:10046B0019FCE7191933CC33C3947F400ECD9D5043
:10047B002408E65480F6E418F6800FF4043D14507B
:10048B001408E6447FF6187680E418F618F6D0E0E8
:10049B00FCD0E0FD22CCD313CCFD18E4C6CBC0E0DE
:1004AB0018E4C6CAC0E00808ED08C633E613F61810
:1004BB00E433C675F003C3CA97CA09CB97CB199C13
:1004CB0040047D08802EBD000302059316B6FF0580
:1004DB000606081618C3CA33CACB33CB33CA27CA8E
:1004EB0009CB37CB193CC37D08803E187D0820E72C
:1004FB005CC633C6CA33CACB33CB33DDF1D5F0EB95
:10050B0030E77BCA97CA09CB974ACB199C406F4BF4
:10051B007025E620E0218066187D08C3CA97CA09BA
:10052B00CB97CB199CD3C633C6CA33CACB33CB3389
:10053B0050C9DDE7D5F0E1D3E4C636C608C636C6EA
:10054B0008C636C608C636C61818188031C3CA97EF
:10055B00CA09CB97CB199CB34097C633C6CA33CACB
:10056B00CB33CB33DD34D5F02EC6A2E0C640C8CAA0
:10057B0027CA09CB37194A70BECB3CB480B90808DF
:10058B00E63308E633601F181818D0E0FAD0E0FB0A
:10059B00D0E0FCD0E0FD22187D08CA27CA09CB3772
:1005AB00CB193CD3808013F618E4B67F11F618B63E
:1005BB00FF0EF618C60470D20808768080CAF618AB
:1005CB00F618F680C5E0F608A3E0F608A3E0F608F7
:1005DB00A3E0F622E6F008A3E6F008A3E6F008A3F2
:1005EB00E6F022E0FAA3E0FBA3E0FCA3E0FD22256A
:1005FB0010C582C0E0E51134FFC583C0E0E510C330
:10060B00958224F810AF08858311858210800885A8
:10061B008311858210D2AFCEF0A3E520F0A378082A
:10062B00E608F0A3DEFAEFF0A3E58124FAF8E6087A
:10063B00F0A3E608F0A3E608F0A30808E608F0A389
:10064B00E608F0A315811581D0E0FED0E0F8158106
:10065B0015811581E8C0E0EEC0E02285118385107D
:10066B0082E0A3FEE0A3F5207808E0A3F608DFFA0A
:10067B00E0A3FFE0A3C0E0E0A3C0E0E0A3C0E0E0A4
:10068B00A3C0E0E0A3C0E010AF0885821085831102
:10069B008008858210858311D2AFD083D08202006F
:1006AB00C3C28B32C0E0C0D0C082C083900F00E0C9
:1006BB002401F0D083D082D0D0D0E032C290D2903F
:1006CB007800800B0000000000000000000008E82C
:1006DB00C3942140EFC2900200C3780079008012CE
:1006EB000000000AEAC394C840F6E82401F8E93494
:1006FB0000F9C3E89488E9941350047A0080E5026A
:10070B0000C374F71205FA78007900801E8A828B79
:10071B0083E0F5C18A828B83A3AA82AB83A2E950C3
:10072B00FCC2E9E82401F8E93400F9C3E89CE99D2F
:10073B00A2D265D03340D67F0102066643FD01434A
:10074B00FF0153F4FC43FE0153FEFDC290D280D255
:10075B00A0900F007400F053C6BFE59DA2E650FABF
:10076B0075C6B843BE0475DA0675DB0075E43375E0
:10077B00F10075F33C43868043C50A43C2D8D2E9E6
:10078B0043864043A884D2AFD2B9804C900F03E08C
:10079B002430F07C0D7D007A087B0F1201127C0156
:1007AB007D007A017B0F1201127C017D007A027BA6
:1007BB000F1201127C017D007A037B0F1201127C58
:1007CB00027D007A167B0F1201127C027D007A19D2
:1007DB007B0F12011212010CD2F0A2A030F001B368
:1007EB0092A0120106A29150FC900F007400F0A28F
:1007FB009140FC900F00E0F508E4F509F50AF50BC4
:10080B007808120118900F0478081205DF900F0476
:10081B0078081205D0900F1C780C1205D078087947
:10082B000C12026A900F20780C1205D07808790C04
:10083B001203EA900F24780C1205D07808790C1269
:10084B00026A900F28780C1205D07808790C1203E5
:10085B00EA900F2C780C1205D07808790C12026AEA
:10086B00900F0478081205DF900F041205EE1201A9
:10087B0075E508900F00F075F064900F00E0849020
:10088B000F01F075F00AC0F0900F00E075F0648472
:10089B00E5F0D0F084900F02F0900F00E075F00AB5
:1008AB0084E5F0900F03F0900F01E0C3940A400928
:1008BB00900F01E02437F08007900F01E02430F017
:1008CB00900F02E0C3940A4009900F02E02437F026
:1008DB008007900F02E02430F0900F03E0C3940ADE
:0F08EB005003020797900F03E02437F002079E97
:04000005000000AB4C
:00000001FF
