:020000040000FA
:0300000002007388
:1000130002066000000080FB1200A3B90003020087
:100023005DE4900F00780279018002F0A3D8FCD937
:10003300FA900F01AA82AB839000A6780D79018014
:1000430015E493A3AC82AD838A828B83F0A3AA8247
:10005300AB838C828D83D8E9D9E7758221758307B9
:100063007400120085758216758300740012008572
:1000730075D0007581BF75100075110F759F000253
:10008300001BC09FF59FE473D09F22D083D082C012
:100093009FE493C0E0740193C0E0740293F59F2240
:1000A3007901220000000000F8FF4500000442121D
:1000B300008E87060012008EE70600E9799EC608C7
:1000C300CAC608CBC608CCC6C370207996CACBCCA7
:1000D3007019798ECBCC70137986CC700EF9802A87
:1000E300CA33CACB33CBCC33CC331930E7F2CCCBC6
:1000F300CA3350147004EA30E00DE4CA3ACACB3B69
:10010300CBCC3CCC500209C3E913C6CC182313C68D
:10011300CB18C6CA18C6F92212015B20F01430E7C7
:100123002B74FFFCFBFA747F8022E4FCFBFA7480DF
:10013300801AB48008BC00F2BB00EF800F50EBF9CB
:10014300E4C39AFAE49BFBE49CFCE499C6CC18C68E
:10015300CB18C6CA18C6F922E4C9C608CAC608CB52
:10016300C6D3330308CCC63392F0C3947F402E9496
:10017300184019C9B90704CACBCC225025C309CAF0
:1001830033CACB33CBCC33CC33D9F422F4600DC98F
:10019300CCC313CB13CBCA13CAD9F6CC22E4FCFBD2
:1001A300FA2214FCFBFA22E6C33318461846184613
:1001B30022E7C33319471947194722181818E608C5
:1001C3004608700AE608C3337005E633F4220822B2
:1001D300191919E7094709700AE709C3337005E7D5
:1001E30033F4220922E6084608C3134608336002A3
:1001F300E633F422E7094709C3134709336002E7EB
:1002030033F422001201E8604F1201F76012E75441
:100213008066F61201BE70111201B4703B09090920
:10022300F4F618F618F618F6221201D37015120117
:10023300AA08080860EAE6447FF618768018E4F610
:1002430018F6221201AA60161201B47012E4F6081D
:10025300F608F608E65480F609090918181822EA80
:10026300C0E0EBC0E0ECC0E0EDC0E0E687F0A4FB4B
:10027300ACF008E687F0A42CFCE435F0FA1809E6A4
:1002830087F0A42C4B60027401CA35F0FCE433FB05
:1002930009E687F0D2F7A42CCB35F0FC1908E687E2
:1002A300F0A42BCC35F0FBE433FD0819E687F0D23C
:1002B300E7A42C4ACB35F0CD3400FC09E687F0D215
:1002C300E7A42DCC35F0FDE433FA0918E687F0D224
:1002D300F7A42CCD35F0CA3400FC08E687F0D2E74A
:1002E300D2F7A42ACC35F07A7E20E70B0ACB33CBA6
:1002F300CD33CDCC33CC33CB3350147004ED30E05D
:100303000ED2F1E4CD3DCDCC3CCC3B5005DA05C259
:10031300F1EB547FC63308E63392F0FBE73309E78A
:1003230033C39A502D2B70190C0D4C4D70151806B4
:10033300E608C333700D20F10AA2F013F6E4188027
:100343000B4024E4F630F002768018F618F618F61F
:100353008024D33B14501074FFA2F013F618768058
:10036300E418F618F6800FA2F013F618E63303F636
:1003730018ECF618EDF6D0E0FDD0E0FCD0E0FBD0B1
:10038300E0FA221201E87004181818221201F7701B
:100393000D74FFF61819F61819F61819F622E75412
:1003A3008066F61201AA700F1201B470F014F608F9
:1003B300F608F608F680D11201B4700CF608F608B8
:1003C300768008E6447F80EC1201D6700C1201C1DE
:1003D30060BFE65480F6E480BB1201C170051919B1
:1003E3001980A5E869700C763F18768018F618F620
:1003F300E8F922E6CDC0E018ECC0E0E633CD33CD1A
:10040300D313F6E719FCE7191933CC33C3947F40B0
:100413000ECD9D502408E65480F6E418F6800FF4C0
:10042300043D14501408E6447FF6187680E418F669
:1004330018F6D0E0FCD0E0FD22CCD313CCFD18E4B9
:10044300C6CBC0E018E4C6CAC0E00808ED08C6334E
:10045300E613F618E433C675F003C3CA97CA09CB8B
:1004630097CB199C40047D08802EBD000302052F05
:1004730016B6FF050606081618C3CA33CACB33CB14
:1004830033CA27CA09CB37CB193CC37D08803E1832
:100493007D0820E75CC633C6CA33CACB33CB33DD12
:1004A300F1D5F0EB30E77BCA97CA09CB974ACB1952
:1004B3009C406F4B7025E620E0218066187D08C3C1
:1004C300CA97CA09CB97CB199CD3C633C6CA33CABA
:1004D300CB33CB3350C9DDE7D5F0E1D3E4C636C621
:1004E30008C636C608C636C608C636C618181880E3
:1004F30031C3CA97CA09CB97CB199CB34097C6336C
:10050300C6CA33CACB33CB33DD34D5F02EC6A2E013
:10051300C640C8CA27CA09CB37194A70BECB3CB4F8
:1005230080B90808E63308E633601F181818D0E0CE
:10053300FAD0E0FBD0E0FCD0E0FD22187D08CA270A
:10054300CA09CB37CB193CD3808013F618E4B67FA6
:1005530011F618B6FF0EF618C60470D20808768096
:1005630080CAF618F618F680C5E0F608A3E0F60888
:10057300A3E0F608A3E0F622700422600D18C6C3B8
:1005830033C608C633C6D5E0F41822251010AF08C9
:10059300F510400215118008F51040021511D2AF75
:1005A300222510F582E43511F583222510C582C07A
:1005B300E0E51134FFC583C0E0E510C3958224F85C
:1005C30010AF088583118582108008858311858289
:1005D30010D2AFCEF0A3E520F0A37808E608F0A38D
:1005E300DEFAEFF0A3E58124FAF8E608F0A3E608C3
:1005F300F0A3E608F0A30808E608F0A3E608F0A3D2
:1006030015811581D0E0FED0E0F8158115811581A3
:10061300E8C0E0EEC0E022851183851082E0A3FEEE
:10062300E0A3F5207808E0A3F608DFFAE0A3FFE0F3
:10063300A3C0E0E0A3C0E0E0A3C0E0E0A3C0E0E02B
:10064300A3C0E010AF0885821085831180088582DE
:1006530010858311D2AFD083D08202008BC0E0C05B
:10066300D0C082C083C0F0C28BD2F0A28030F00130
:10067300B39280E5C1900F00F0D0F0D083D082D048
:10068300D0D0E03274F61205AEEAFCEBFDECC454B4
:10069300F0F8E9C4333354C0484DF5B653B430E5EC
:1006A300BAF875BA00E5BBFA75BB0043B440E5B4CC
:1006B300A2E750FAA8BB88827583008582088583E8
:1006C300097406780812057BE5BA1313543FFA7BC5
:1006D30000E5082AF508E5093BF509AA08AB097FF7
:1006E3000202061A74F71205AE78007900801E8A9A
:1006F300828B83E0F5C18A828B83A3AA82AB83A218
:10070300E950FCC2E9E82401F8E93400F9C3E89CA4
:10071300E99DA2D265D03340D67F0102061A74F850
:1007230012058E900F01780812056C43FD0143FFFB
:1007330001D280D2A053C6BFE59DA2E650FA75C68A
:10074300B843BE0475F10075F33C43868043C50A84
:1007530043C2D8D2E943864043A884D2F0A2A03052
:10076300F001B392A0900F00E0640170EE7B017A78
:100773000379021200B28A088B09E4F50AF50B78B3
:10078300081200BE900F05780C12056C7808790CDE
:10079300120386900F09780C12056C7808790C12F5
:1007A3000206900F007400F075F00AC0F085080C83
:1007B30085090D850A0E850B0F780C12011BE50CBC
:1007C300D0F0842430851082851183F074011205E2
:1007D300A4742EF0780812011BE50875F00A84E56D
:1007E300F02430C0E074021205A4D0E0F0740312C8
:1007F30005A47456F074041205A47409F07C057DF5
:1008030000851082851183AA82AB831200B8020788
:010813005E86
:040000050000007384
:00000001FF
