:020000040000FA
:0300000002007388
:10001300020A1A00000080FB1200A3B900030200C9
:100023005DE4900F00780279018002F0A3D8FCD937
:10003300FA900F01AA82AB839000A67830790180F1
:1000430015E493A3AC82AD838A828B83F0A3AA8247
:10005300AB838C828D83D8E9D9E77582CB75830A0C
:100063007400120085758216758300740012008572
:1000730075D0007581BF75100075110F759F000253
:10008300001BC09FF59FE473D09F22D083D082C012
:100093009FE493C0E0740193C0E0740293F59F2240
:1000A30079012254657374696E672E2E2E0D0A0032
:1000B3005072657373203D200067000D0A00010034
:1000C300C0410000C0C10000FA4300004C420000E0
:1000D300000012008E440A0012008E6C0A00120007
:1000E3008EA60A0012008E410C0012008ED70C005F
:1000F300E9799EC608CAC608CBC608CCC6C3702019
:100103007996CACBCC7019798ECBCC70137986CC07
:10011300700EF9802ACA33CACB33CBCC33CC331914
:1001230030E7F2CCCBCA3350147004EA30E00DE46C
:10013300CA3ACACB3BCBCC3CCC500209C3E913C669
:10014300CC182313C6CB18C6CA18C6F922120190BD
:1001530020F01430E72B74FFFCFBFA747F8022E459
:10016300FCFBFA7480801AB48008BC00F2BB00EF79
:10017300800F50EBF9E4C39AFAE49BFBE49CFCE4A4
:1001830099C6CC18C6CB18C6CA18C6F922E4C9C684
:1001930008CAC608CBC6D3330308CCC63392F0C310
:1001A300947F402E94184019C9B90704CACBCC22B6
:1001B3005025C309CA33CACB33CBCC33CC33D9F4A0
:1001C30022F4600DC9CCC313CB13CBCA13CAD9F61F
:1001D300CC22E4FCFBFA2214FCFBFA22E6C333181C
:1001E300461846184622E7C33319471947194722C9
:1001F300181818E6084608700AE608C3337005E6BF
:1002030033F4220822191919E7094709700AE70983
:10021300C3337005E733F4220922E6084608C31303
:100223004608336002E633F422E7094709C313475C
:1002330009336002E733F42212021D601C12022C00
:1002430060171201DF70071201E97001D322C0D0D9
:100253001201E97006D0D0B322C32233D0D0501498
:1002630030E0F6C3E7960809E7960809E796080918
:10027300E796B32220E0D5E6970809E6970809E652
:10028300970809E697B3220012021D604F12022C51
:100293006012E7548066F61201F370111201E970DF
:1002A3003B090909F4F618F618F618F622120208A3
:1002B30070151201DF08080860EAE6447FF6187635
:1002C3008018E4F618F6221201DF60161201E970B5
:1002D30012E4F608F608F608E65480F60909091848
:1002E300181822EAC0E0EBC0E0ECC0E0EDC0E0E6A5
:1002F30087F0A4FBACF008E687F0A42CFCE435F00F
:10030300FA1809E687F0A42C4B60027401CA35F091
:10031300FCE433FB09E687F0D2F7A42CCB35F0FCE1
:100323001908E687F0A42BCC35F0FBE433FD08195C
:10033300E687F0D2E7A42C4ACB35F0CD3400FC0994
:10034300E687F0D2E7A42DCC35F0FDE433FA0918A3
:10035300E687F0D2F7A42CCD35F0CA3400FC08E6CA
:1003630087F0D2E7D2F7A42ACC35F07A7E20E70BC8
:100373000ACB33CBCD33CDCC33CC33CB335014700A
:1003830004ED30E00ED2F1E4CD3DCDCC3CCC3B507E
:1003930005DA05C2F1EB547FC63308E63392F0FB6E
:1003A300E73309E733C39A502D2B70190C0D4C4DCD
:1003B30070151806E608C333700D20F10AA2F01376
:1003C300F6E418800B4024E4F630F002768018F649
:1003D30018F618F68024D33B14501074FFA2F013C0
:1003E300F6187680E418F618F6800FA2F013F618C4
:1003F300E63303F618ECF618EDF6D0E0FDD0E0FC9A
:10040300D0E0FBD0E0FA2212021D601D12022C7014
:1004130005191919801A1201F3701F120208C3700B
:1004230003E6673319191940071818182208080832
:1004330074FFF618F618F618F6221202086017125F
:1004430001E9702192F01201DF7019501720F014A6
:10045300080808090909E7F61819E7F61819E7F66D
:100463001819E7F6221201DF60E6E869701F080831
:10047300E62480F608E436F618547FB47F0CE6547D
:10048300806007F6E418F618F622181822E9C6CC9D
:1004930008C6CD08C6CE08C6CFC0E0E8C0E0EAC0B3
:1004A300E0EBC0E009E9F809E7FA09E7FBE6F91828
:1004B300E6F8C3EC98ED99EE9AEBC2E7F5F0EFC2DC
:1004C300E795F0500E600CEBCFFBEACEFAE9CDF9DD
:1004D300E8CCF8EAA2E7D2E7FAEB33FB13F5F0EE48
:1004E300A2E7D2E7FEEF33FFC5F013A2E730E60140
:1004F300B313C5F0C3C0E0C0F07F00C39BFB605BD8
:100503009418600C401AD0E023F9D0E0F80205E813
:100513008AF0E9486003D2F0E4AFF0FAF9F8803BDF
:10052300EB30E40D89F0EA6003D2F0E4AFF0F9CAEE
:10053300F8EB30E30D88F0EF6002D2F0AFF0E4CADD
:10054300C9F8EB54076014FBC3EA13FAE913F9E89B
:1005530013F8EF135002D2E0FFDBEDD0E0C0E03040
:10056300E739C3E49FFFF5F0EC98FC42F0ED99FD09
:1005730042F0EE9AFE42F0D0E0F9D0E0F8E5F06008
:100583007AE923F9EE20E742D8028067C3EF33FF0D
:10059300EC33FCED33FDEE33FE80EAEC28FCED3961
:1005A300FDEE3AFED0E023F9D0E0F84002801BC311
:1005B300EE13FEED13FDEC13FCEF135002D2E0FF3C
:1005C30008B800067F7F74FF802EEF3350178CF03E
:1005D30020F00260100CBC000C0DBD00080EBE0024
:1005E3000408E860DFE933E813FFEE2313FE4F4D01
:1005F3004C8008E95480FFE4FEFDFCEE33EF33F456
:100603007004FCFD7E80D0E0FBD0E0FAD0E0F8D0AF
:10061300E0CFC618CEC618CDC618CCC6F922120232
:100623001D70041818182212022C700D74FFF6188E
:1006330019F61819F61819F622E7548066F612010E
:10064300DF700F1201E970F014F608F608F608F6E9
:1006530080D11201E9700CF608F608768008E644AA
:100663007F80EC12020B700C1201F660BFE654801F
:10067300F6E480BB1201F6700519191980A5E86923
:10068300700C763F18768018F618F6E8F922E6CD56
:10069300C0E018ECC0E0E633CD33CDD313F6E71951
:1006A300FCE7191933CC33C3947F400ECD9D5024FE
:1006B30008E65480F6E418F6800FF4043D14501451
:1006C30008E6447FF6187680E418F618F6D0E0FCC6
:1006D300D0E0FD22CCD313CCFD18E4C6CBC0E01888
:1006E300E4C6CAC0E00808ED08C633E613F618E40A
:1006F30033C675F003C3CA97CA09CB97CB199C407D
:10070300047D08802EBD00030207CA16B6FF050646
:1007130006081618C3CA33CACB33CB33CA27CA0950
:10072300CB37CB193CC37D08803E187D0820E75C9E
:10073300C633C6CA33CACB33CB33DDF1D5F0EB3086
:10074300E77BCA97CA09CB974ACB199C406F4B707A
:1007530025E620E0218066187D08C3CA97CA09CB25
:1007630097CB199CD3C633C6CA33CACB33CB3350CA
:10077300C9DDE7D5F0E1D3E4C636C608C636C608F8
:10078300C636C608C636C61818188031C3CA97CAF3
:1007930009CB97CB199CB34097C633C6CA33CACB90
:1007A30033CB33DD34D5F02EC6A2E0C640C8CA270A
:1007B300CA09CB37194A70BECB3CB480B90808E6E6
:1007C3003308E633601F181818D0E0FAD0E0FBD0E6
:1007D300E0FCD0E0FD22187D08CA27CA09CB37CB3D
:1007E300193CD3808013F618E4B67F11F618B6FFD0
:1007F3000EF618C60470D20808768080CAF618F67A
:1008030018F680C5E0F608A3E0F608A3E0F608A30F
:10081300E0F622B90010BB0008E88AF084F8AAF0D9
:1008230022E4FBC8FA22EB70227B10C833C8C93319
:10083300C9335007C39AC3DBF280069A50012ADBFF
:10084300EAC833F4C8C933F4C9FA2275F008E4C816
:1008530033C8C933C933C99AC99B5004C92AC93B90
:10086300D5F0ECFBC833F4C8E4C9FA22600C08C61F
:10087300C313C618C613C6D5E0F422700422600D54
:1008830018C6C333C608C633C6D5E0F418222510EC
:1008930010AF08F510400215118008F5104002153D
:1008A30011D2AF222510F582E43511F583222510EC
:1008B300C582C0E0E51134FFC583C0E0E510C395F0
:1008C3008224F810AF088583118582108008858300
:1008D30011858210D2AFCEF0A3E520F0A37808E60D
:1008E30008F0A3DEFAEFF0A3E58124FAF8E608F0B6
:1008F300A3E608F0A3E608F0A30808E608F0A3E6D9
:1009030008F0A315811581D0E0FED0E0F81581151C
:10091300811581E8C0E0EEC0E02285118385108255
:10092300E0A3FEE0A3F5207808E0A3F608DFFAE0F1
:10093300A3FFE0A3C0E0E0A3C0E0E0A3C0E0E0A326
:10094300C0E0E0A3C0E010AF08858210858311806A
:1009530008858210858311D2AFD083D08202008BA9
:10096300C0D02510C582C0E0E51134FFC583C0E0C7
:10097300E510C3958224F310AF0885831185821097
:100983008008858311858210D2AFC8F0A3E9F0A354
:10099300EAF0A3EBF0A37908E709F0A3D8FAECF0A7
:1009A300A3EDF0A3EEF0A3EFF0A3D0E0F0A3D0E02B
:1009B300F0A3D0E0F0A3E520F0A3E5F0F0A32285B7
:1009C3001183851082E0C0E0A3E0F9A3E0FAA3E07D
:1009D300FBA37808E0F608A3DFFAE0FCA3E0FDA39D
:1009E300E0FEA3E0FFA3E0C0E0A3E0C0E0A3E0F5E6
:1009F300D0A3E0F520A3E0A3F5F010AF08858311A1
:100A03008582108008858311858210D2AFD082D071
:100A130083D0E0F8D0E032C0E074F2120963C28BF5
:100A2300D2F0A28030F001B39280E5C1900F00F0C4
:100A33007A017B00900F00E0F91200E17F010209C7
:100A4300C27800790080120000000AEAC394C8400B
:100A5300F6E82401F8E93400F9C3E894DCE99405E5
:100A630050047A0080E502008B74F71208B1780015
:100A73007900801E8A828B83E0F5C18A828B83A3EF
:100A8300AA82AB83A2E950FCC2E9E82401F8E93465
:100A930000F9C3E89CE99DA2D265D03340D67F011B
:100AA30002091D7C007D00801089C1A2E950FCC2AF
:100AB300E9EC2401FCED3400FDC3EC9AED9BA2D2DA
:100AC30065D03340E402008B74FC1208911200EDF0
:100AD3007C0C7D007A017B0F1200DB803D740312D6
:100AE30008A7E02430F07C087D007A0E7B0F12000B
:100AF300DB7C037D0074011208A7AA82AB8312007A
:100B0300DB7C017D007A177B0F1200DB7C027D000A
:100B13007A197B0F1200DB1200D57B027A0379016D
:100B23001200E78A088B09A808A9098808890974AB
:100B330006780812086FA808A90988088909E4F546
:100B43000AF50B78081200F3900F1C780C120807B3
:100B53007808790C12023B502F900F20780C120862
:100B6300077808790C12040A900F24780C120807EE
:100B73007808790C12028A900F28780C12080778EB
:100B830008790C1206218008900F2C7808120807A8
:100B93007808120150AC08AD09ECF8EDF97A647BE2
:100BA30000120816E8C0E074011208A7D0E0F0ECC8
:100BB300F8EDF97A647B00120816EAF8EBF97A0A81
:100BC3007B00120816E8C0E074021208A7D0E0F018
:100BD300ECF8EDF97A0A7B00120816EAC0E0740318
:100BE3001208A7D0E0F074011208A7E0C3940A40EA
:100BF3000B74011208A7E02437F08009740112086E
:100C0300A7E02430F074021208A7E0C3940A400B53
:100C130074021208A7E02437F0800974021208A7AF
:100C2300E02430F074031208A7E0C3940A500302CF
:100C33000AE074031208A7E02437F0020AE974F605
:100C43001208B1EAFCEBFD740E69700E90624B74EE
:100C530001F09061BD7401F0800C90624B7400F060
:100C63009061BD7400F0740F59F5B674035CC454FD
:100C7300F042B6EDC4333354C042B643B430A8BADD
:100C83008882758300858208858309A8BB8882755D
:100C9300830085820885830943B440E5B4A2E75005
:100CA300FAA8BB8882758300858208858309740648
:100CB300780812087EE5BA1313543FFA7B00E5085F
:100CC3002AF508E5093BF50953B47FAA08AB097F68
:100CD3000202091D43FD0143FF01D280D2A053C686
:100CE300BFE59DA2E650FA75C6B843BE0475F10090
:100CF30075F33C43868043C50A43C2D8D2E9438691
:0A0D03004043A88475F20202008B41
:040000050000007384
:00000001FF
