:020000040000FA
:1000000002006000000080FB12008AB900030200B9
:100010004AE4900001780279018002F0A3D8FCD96B
:10002000FA900002AA82AB8390008D78117901804A
:1000300015E493A3AC82AD838A828B83F0A3AA825A
:10004000AB838C828D83D8E9D9E77582F475830000
:10005000740012006C758203758300740012006CCA
:1000600075D0007581BF759F00020008C09FF59F85
:10007000E473D09F22D083D082C09FE493C0E07409
:100080000193C0E0740293F59F22790122C0F9A484
:10009000B0999282F880908883C6A1868E120075EE
:1000A000AF0000120075C900001200753201005344
:1000B000F6FB53F4F843FE0753F3EF43FD10D290E1
:1000C000D291D292D284020072C284C292C291783A
:1000D00000800BC291E9C333F9C292D29208E8C3FF
:1000E00094085009E9A2E750EAD29180E8C284D28C
:1000F0008402007212009D8031900001E0F87900C6
:10010000740228F582740039F583E0F91200A31215
:1001100000A9900001E02401F0900001E0C39410D8
:1001200040D779FF1200A31200A99000017400F0DB
:1001300080E77A007B00801C000000E82401F8E9D9
:100140003400F9C3E894C8E9940040ECEA2401FAC9
:10015000EB3400FBC3EA94DCEB940550067800799D
:060160000080E0020072C5
:040000050000006097
:00000001FF
